:020000040800F2
:10000000C80B0020A9010008B1010008AF020008D8
:10001000B5010008B7010008B901000800000000A0
:10002000000000000000000000000000BB0100080C
:10003000BD01000800000000FB010008B914000821
:10004000C3010008C3010008C3010008C301000880
:10005000C3010008C3010008C3010008C301000870
:10006000C3010008C3010008C3010008C301000860
:10007000C3010008C3010008C3010008C301000850
:10008000C3010008C3010008C3010008C301000840
:10009000C3010008C3010008C3010008C301000830
:1000A000C3010008C3010008C3010008C301000820
:1000B000C3010008C301000800000000C3010008DC
:1000C000C3010008C3010008C3010008C301000800
:1000D000C3010008C3010008C3010008C3010008F0
:1000E000C3010008C3010008000000000000000078
:1000F0000000000000000000000000000000000000
:1001000000000000C301000800000000C301000857
:10011000C301000800000000C30100080000000047
:10012000C3010008C3010008C3010008C30100089F
:10013000C3010008C3010008C3010008000000005B
:10014000C3010008C3010008C3010008C30100087F
:10015000C3010008C3010008C3010008C30100086F
:10016000C3010008C3010008C3010008000000002B
:1001700000000000C30100080000000000000000B3
:10018000C3010008C3010008C3010008C30100083F
:10019000C3010008DFF80CD000F048F90048004720
:1001A00051040008C80B0020064880470648004755
:1001B000FEE7FEE7FEE7FEE7FEE7FEE7FEE7FEE717
:1001C000FEE7FEE7F915000895010008EFF310803F
:1001D00072B6704780F3108870473A4A1368012B53
:1001E00004D04FF001031360374A1060374A1160A2
:1001F00037484FF0805101607047EFF3108272B6BC
:100200003048016851B34FF0000101602E48016889
:1002100091B1EFF309811EF0100F08BF21ED108B93
:1002200021E9F00F4FF000041EF0100F08BF012469
:1002300041F8044D0068016024490968096808C94B
:10024000B1E8F00F002B18BF00F048B881F309881F
:100250004EF0100E002B18BF2EF0100E82F31088F7
:100260004EF0040E704719490860EFF3148222F033
:10027000040282F3148814494FF000000860114909
:100280004FF00100086013484FF47F01D0F80020C0
:1002900041EA020101600E484FF0805101600E48B2
:1002A0000068006880F3088861B662B67047EFF3B3
:1002B000098000B502F03CFD5DF804EB4EF0040E41
:1002C00070470000140000200C00002010000020E7
:1002D00004ED00E020ED00E008ED00E0B1EC088B5B
:1002E000B1EC08CBFFF7B2BF2DE9F05F0546002067
:1002F00092469B4688460646814640241BE0284697
:1003000041464746224600F081F853465A46C01AF5
:10031000914110D311461846224600F068F82D1A74
:1003200067EB01084F4622460120002100F05FF8EC
:1003300017EB00094E41201EA4F10104DFDC484602
:1003400031462A46434600F000B830BCBDE8C09FA5
:1003500040EA01039B0703D009E008C9121F08C047
:10036000042AFAD203E011F8013B00F8013B521EC7
:10037000F9D27047D2B201E000F8012B491EFBD23E
:1003800070470022F6E710B513460A4604461946A0
:10039000FFF7F0FF204610BD421E12F8013F002B70
:1003A000FBD111F8013B02F8013B002BF9D170475A
:1003B000421C10F8011B0029FBD1801A704703462C
:1003C00011F8012B00F8012B002AF9D118467047CB
:1003D00030B505460020034600E05B1C934205D281
:1003E000EC5CC85C201A01D1002CF6D130BD202A6B
:1003F00004DB203A00FA02F1002070479140C2F17C
:10040000200320FA03F3194390407047202A04DBAD
:10041000203A21FA02F00021704721FA02F3D0407D
:10042000C2F120029140084319467047064C074D1F
:1004300006E0E06840F0010394E8070098471034B4
:10044000AC42F6D3FFF7AAFE24400008444000085F
:1004500010B5FFF7BBFE03F054FB002010BD0000F9
:100460002DE9F84FDFF864B100234FF0010C4FF095
:10047000030A4FF00F090BF1040EA0E00CFA03F68B
:10048000324072D04C68022C01D0122C0ED1DC0804
:1004900000EB8408D8F820405D07EF0E09FA07F555
:1004A000AC430D69BD402543C8F8205007685D0086
:1004B00091F804800AFA05F408F00308A74308FA43
:1004C00005F848EA0708C0F800804F68012F05D0FA
:1004D000022F03D0112F01D0122F11D18768D1F82C
:1004E0000C80A74308FA05F848EA0708C0F8088016
:1004F0004768B7430E79C6F300169E403E434660F8
:10050000C668A6438C68AC403443C4604C68E400C1
:1005100054D52F4C256E45F001052566246E23F039
:10052000030504F0010400942A4C2E19B4689D07B9
:100530002F0F09FA07F5AC43B0F1904F04D0264DC8
:10054000A84203D1012512E0002510E0234DA84266
:1005500001D102250BE0224DA84201D1032506E07E
:10056000204DA84202D1042501E027E00725BD4027
:100570002543B560DBF800405D464E689443F603C2
:1005800000D514432C60DEF8004075464E68944355
:10059000B60300D514432C600C4D08352C684E680A
:1005A0009443F60200D514432C60084D0C352C689A
:1005B0004E689443B60200D514432C605B1C0A6855
:1005C00032FA03F47FF45AAF00F00EB80004014091
:1005D00000100240000001400004004800080048EC
:1005E000000C00480010004818BCBDE8E08F0AB1BC
:1005F0008161704781627047014800687047000060
:100600000400002010B5044607484FF47A710068D2
:10061000B0FBF1F000F09AFD00222146501E00F0E0
:1006200005F8002010BD000000000020F0B40E4BC3
:100630001B680C46C3F30223C3F10705042D00D940
:100640000425191D072901D2002300E0DB1E012625
:1006500006FA05F1491E214099409E40761E16403B
:100660003143F0BC00F044BE0CED00E01549B0F59C
:10067000007F0868C0F3412009D0022805D008682F
:1006800020F4C06040F480600860002070470128BA
:10069000FBD0086820F4C06040F4007008600A488D
:1006A0000A4A0068B0FBF2F03222504300E0401EDC
:1006B00010B14A695205FAD448694005E5D50320CE
:1006C00070470000007000400000002040420F0012
:1006D0000248006800F4C0607047000000700040ED
:1006E0002DE9F84F044600270088C04D3E4600051E
:1006F00015D5E06C60B1B0F5000F04D0B0F5400F37
:100700002BD001270AE0E86840F48030E86024E05C
:100710000021201D00F0FCFD07001ED03E46206891
:1007200080033AD5A86D4FF00008C00009D4A86D29
:1007300040F08050A865A86D4FF0010800F080508F
:100740000090DFF8ACA2DAF8001041F48071CAF82A
:100750000010FFF751FF814610E0D5F88800E16CEA
:1007600020F440000843C5F88800D8E7FFF744FFAD
:10077000A0EB0900022801D9032705E0DAF8000000
:10078000C005F3D5002F7CD04FEA0706B8F1000F63
:1007900003D0A86D20F08050A8652078C00707D04E
:1007A000D5F88800216A20F003000843C5F88800C6
:1007B0002078800707D5D5F88800616A20F00C0002
:1007C0000843C5F888002078400707D5D5F8880089
:1007D000A16A20F030000843C5F88800207800079F
:1007E00007D5D5F88800E16A20F0C0000843C5F8B5
:1007F00088002078800607D5D5F88800216B20F482
:1008000040600843C5F888002088800507D5D5F8E2
:100810008800616C20F440200843C5F888002088D7
:10082000400507D5D5F88800A16C20F44010084396
:10083000C5F888002078400607D5D5F88800616B98
:1008400020F440500843C5F888002078000607D5FA
:10085000D5F88800A16B20F440400843C5F8880013
:100860002088C00507D5D5F88800E16B20F440301A
:100870000843C5F888002068C00209D5D5F89C0057
:1008800000E01CE0216C20F003000843C5F89C0048
:1008900020884FF0006780044FF080684ED5D5F86F
:1008A0008800216D20F040600843C5F88800206D65
:1008B000B8423BD1E86840F48010E8603EE0D5F8EB
:1008C000900010F4407014D0616E814211D0D5F8C0
:1008D0009000D5F8901020F4407041F48031C5F8B4
:1008E0009010D5F8901021F48031C5F89010C5F81B
:1008F0009000C00711D0FFF77FFE074641F288390C
:1009000007E000BFFFF778FEC11B494501D9032668
:100910003CE7D5F890008007F4D5D5F89000616EDB
:1009200020F440700843C5F890002FE7404505D1FA
:100930000121201D00F0ECFC00B1064620680003F8
:1009400017D5D5F88800616D20F040600843C5F8E0
:100950008800606DB84204D1E86840F48010E86017
:1009600007E0404505D10121201D00F0D1FC00B178
:1009700006462068400317D5D5F88800A16D20F001
:1009800040600843C5F88800A06DB84204D1E8680B
:1009900040F48010E86007E0404505D10121201DAA
:1009A00000F0B6FC00B106462088400411D5D5F809
:1009B0008800E16D20F040500843C5F88800E06DE4
:1009C000B0F1805F05D10221201D00F0A1FC00B133
:1009D00006462068C00306D555F8880F216E20F022
:1009E000004008432860304600F004B80010024080
:1009F0000070004018BCBDE8E08F00002DE9F04712
:100A0000DFF8608105460E46D8F8000000F00700C8
:100A1000B0420CD2D8F8001021F007013143C8F8D9
:100A20000010D8F8000000F00700B04275D1287817
:100A30004D4CC00757D06868032818D0022819D039
:100A40002168D0B14905002967DAA16821F00301C6
:100A50000143A160FFF7D0FD6968074641F2883085
:100A6000032913D002291FD0814651B336E02168F3
:100A70008901E8E721688903E5E78907E3E700BF23
:100A8000FFF7BAFDC11B494501D924E08146A068A2
:100A9000C0F381000328F3D125E000BFFFF7ACFDD0
:100AA000C11B494501D916E08146A068C0F3810009
:100AB0000228F3D117E000BFFFF79EFDC11B494597
:100AC00009D8A06810F00C0FF6D10CE0FFF794FDE8
:100AD000C11B494502D90320BDE8F087A068C0F3D7
:100AE00081000128F2D12878800705D5A068A9687F
:100AF00020F0F0000843A060D8F80010404601F054
:100B00000701B1420BD9016821F0070131430160AF
:100B1000006800F00700B04201D00120DCE728782F
:100B2000400705D5A068E96820F4E0600843A060AC
:100B30002878000706D5A068296920F4605040EAAB
:100B4000C100A06000F03CF8A168084AC1F303119D
:100B5000515CC840064908600020FFF753FD0020A3
:100B6000BAE700000020024000100240903B00085D
:100B700000000020014800687047000000000020CD
:100B80000448054900688968044AC1F30221515CA0
:100B9000C84070470000002000100240D03B000811
:100BA0000448054900688968044AC1F3C221515CC0
:100BB000C84070470000002000100240D03B0008F1
:100BC00030B52D49002318468A682C4C12F00C0FC2
:100BD0004FEA640514D08A68C2F38102032A04D163
:100BE000CA6802F00302012A0AD08A68C2F38102AD
:100BF000012A19D08A68C2F38102022A16D016E0AF
:100C00000A68120704D4D1F89420C2F3032202E048
:100C10000A68C2F303121A4B53F822308A6812F0A2
:100C20000C0F04D1184602E0204600E028468A68EE
:100C3000C2F38102032A1DD1C868CA6800F003000C
:100C4000C2F30212521C022804D0032805D0B3FBC1
:100C5000F2F004E0B4FBF2F001E0B5FBF2F0CA6898
:100C6000C968C2F306225043C1F34161491C4900DF
:100C7000B0FBF1F030BD0000001002400024F40091
:100C8000A03B00082DE9F84304460078FD4DC0065E
:100C90005DD5A86810F00C0F0AD0A069002828685C
:100CA00071D040F001002860FFF7A6FC064654E032
:100CB0002868800702D5A06900287DD0216A2868AD
:100CC000000703D5286800F0F00004E0D5F8940090
:100CD000F02202EA1010814216D9084600F0AEFB5D
:100CE000002869D1286840F0080028602868216A37
:100CF00020F0F000084328606868E16920F47F4034
:100D000040EA0120686015E0286840F0080028608B
:100D10002868216A20F0F000084328606868E169CB
:100D200020F47F4040EA01206860206A00F086FBE2
:100D30000028D6D1FFF744FFA968D34AC1F30311B5
:100D4000515CC840D14908600020FFF75BFC29E0F6
:100D5000FFF752FC801B02287ED828688007F7D551
:100D6000286840F0080028602868216A20F0F00018
:100D7000084328606868E16920F47F4040EA012068
:100D800068600FE0FFE720F001002860FFF734FC07
:100D9000064604E0FFF730FC801B0228DCD82868F8
:100DA0008007F7D42078C0074AD0A868C0F3810034
:100DB00002281FD0A86800E098E0C0F38100032853
:100DC00003D1E868C043800714D06068B0F5803F65
:100DD00017D0B0F5A02F286817D020F480302860F5
:100DE000286820F4802028606068E0B1FFF704FCE8
:100DF000064614E02868800322D56068002875D074
:100E00001EE0286840F48030EDE740F48020286040
:100E1000F7E700BFFFF7F0FB801B64289CD8286829
:100E20008003F7D50CE0FFF7E7FB064605E000BFBF
:100E3000FFF7E2FB801B64288ED828688003F7D474
:100E40002078800742D5A868C0F38100012816D019
:100E5000A868C0F3810000E0CEE0032804D1E86870
:100E600000F0030002280AD0E068002828681DD09E
:100E700040F480702860FFF7BFFB06460BE028684F
:100E800040050BD5E0680028B9D007E0FFF7B4FBB8
:100E9000801B0228C2D828684005F7D56868217CE5
:100EA00020F0FE4040EA016068600FE020F48070AE
:100EB0002860FFF7A1FB064605E000BFFFF79CFB9B
:100EC000801B0228AAD828684005F7D4207800079C
:100ED00029D560690028D5F8940013D040F00100AE
:100EE000C5F89400FFF788FB064606E01DE100BF49
:100EF000FFF782FB801B02287ED8D5F8940080077C
:100F0000F6D510E020F00100C5F89400FFF774FB5F
:100F1000064604E0FFF770FB801B02286CD8D5F86A
:100F200094008007F6D42078400761D5A86D00268C
:100F3000C00008D4A86D40F08050A865A86D0126B7
:100F400000F08050009052480168C90511D4016832
:100F5000804641F480710160FFF74EFB074604E0D4
:100F6000FFF74AFBC01B022846D8D8F80000C0058E
:100F7000F6D5A068012815D00528D5F8900016D020
:100F800020F00100C5F89000D5F8900020F0040092
:100F9000C5F89000A06841F28838B8B1FFF72CFB83
:100FA00007460EE0D5F8900040F00100F0E740F071
:100FB0000400C5F89000F5E7FFF71EFBC11B414593
:100FC0001AD8D5F890008007F6D50CE0FFF714FB8F
:100FD000074604E0FFF710FBC11B41450CD8D5F8CC
:100FE00090008007F6D41EB1A86D20F08050A8654F
:100FF0002078800629D500E089E0606A0028D5F8CD
:10100000980011D040F00100C5F89800FFF7F4FAFD
:10101000064604E0FFF7F0FA801B02287DD8D5F8D9
:1010200098008007F6D510E020F00100C5F8980080
:10103000FFF7E2FA064604E0FFF7DEFA801B02281B
:101040006BD8D5F898008007F6D4A06AC8B1A96813
:10105000C1F38101032968D00228286820F080703C
:10106000286019D02868000103D4E86820F0030044
:10107000E860E86807490840E860FFF7BDFA044601
:101080004EE050E000100240903B000800000020BD
:1010900000700040FFFFEEFEFFF7AEFA064604E0E8
:1010A000FFF7AAFA801B022837D828688001F7D4F6
:1010B000206B54F82C1F000110380843218A1C4A69
:1010C000490802EB4151A26841EA02210843217D0F
:1010D0004FF07E42490802EB41610843217B40EA20
:1010E000C160E860286840F080702860E86840F0DF
:1010F0008070E860FFF780FA044604E0FFF77CFAAE
:10110000001B022809D828688001F7D50BE004E00D
:10111000FFF772FA001B022802D90320BDE8F8830A
:1011200028688001F4D40020F8E70120F6E70000E9
:101130000000E0FF4FF0E0210428086903D020F010
:1011400004000861704740F00400FAE710B5401E43
:10115000B0F1807F01D3012010BD4FF0E024606129
:101160000F21601700F0C4F80020A0610720206163
:10117000002010BD10B5040003D094F8710010B128
:1011800007E0012010BD002084F87000204600F028
:1011900027F8242084F871002068016821F00101FB
:1011A0000160204600F0DCFA0128EBD0606A10B143
:1011B000204600F043FA2068416821F490414160E4
:1011C0002068816821F02A0181602068016841F06F
:1011D000010101602046BDE8104000F093BA000014
:1011E00000B500680E4987B0884217D10D48816D5F
:1011F00041F400318165806D694600F4003005904E
:101200000C20009002200190002002900320039007
:10121000072004904FF09040FFF722F907B000BD7F
:10122000004400400010024030B5204887B0C16C37
:1012300041F00401C164C16C01F004010591C16C6D
:1012400041F08001C164C16C01F080010591C16C65
:1012500041F00101C164C16C01F001010591C16C53
:1012600041F00201C164C06C4FF0904500F00200F3
:101270000590002220212846FFF7B9F94FF40050CD
:1012800000900B480024CDE9010469460948FFF7A6
:10129000E7F8202000900120CDE9010469462846A6
:1012A0000394FFF7DDF807B0002030BD00100240C6
:1012B00000002110000800480C4810B50A490160E0
:1012C0004FF4E1314160C904816000210C22C1600A
:1012D000C0E904128161C16101624162FFF74AFF06
:1012E000002800D0FEE710BD00440040A40000200C
:1012F0000907090E002806DA00F00F0000F1E020CF
:1013000080F8141D704700F1E02080F80014704749
:101310002DE9F041444C05468846E06800268107E7
:1013200028680DD0E16801F00301814216D1A8B10F
:10133000E0686968C0F30210401C88420ED120E0CA
:10134000012804D0022805D0032807D108E021682D
:10135000890701E021684905002907DB01265FE0D4
:101360002168890302D421684903F5E7E1686A68C6
:101370006FF00F0321F0730103EB021211430143DD
:10138000E160206820F080602060FFF735F90746B3
:1013900005E000BFFFF730F9C01B022837D82068EE
:1013A0000001F7D4B8F1000F18D0B8F1010F1DD02B
:1013B000287D4FF07E41400801EB4060A96840EA7B
:1013C00001202169194A114008432061206840F03A
:1013D00080602060FFF710F907461AE0A868297BB3
:1013E000000240EAC1602169114AECE7288A1149EC
:1013F000400801EB4050A96840EA012021690E4AEB
:10140000E1E700BFFFF7F8F8C01B022801D9032667
:1014100006E020680001F5D52069A969084320612C
:101420003046BDE8F081000000100240FF80FFF967
:10143000FF80FF070000E0FFFF809FFFF8B51C4D15
:1014400006460024A86DC00002D5FFF741F90DE063
:10145000A86D40F08050A865A86D00F08050009005
:10146000FFF736F9A96D21F08051A965B0F5007F2D
:1014700004D0802E07D94FF003040AE0802E08D94B
:10148000A02E01D804E001D1022402E0702E00D188
:1014900001240848016821F0070121430160006828
:1014A00000F00700A04201D00120F8BD0020F8BDE7
:1014B000001002400020024010B501F0DBFC02F0F9
:1014C000F3F8BDE8104001F0E9BC30B5B1B002243A
:1014D000E00103901020009404900A940120CDE9CB
:1014E0000B400A200D900720CDE90E0468461094A9
:1014F000FFF7C8FB00B1FEE70F2000252B9003206B
:10150000CDE92C052E9504212BA82F95FFF776FA0F
:1015100000B1FEE711A81A951194FFF7E1F800B1A8
:10152000FEE74FF40070FFF7A1F800B1FEE7FFF708
:1015300021FB6421B0FBF1F0FFF708FE0420FFF768
:10154000F9FD00221146501EFFF770F831B030BD92
:1015500070B525490868000704D4D1F89400C0F399
:10156000032002E00868C0F30310204A52F820303C
:10157000886810F00C021E4807D01E4C042A06D0C2
:101580006510082A05D00C2A05D003601CE0046011
:101590001AE0056018E0CA6802F00306CA68C2F3E0
:1015A0000212521C022E19D0032E1AD0B3FBF2F2F3
:1015B000CB68C3F306235343CA68C2F34162521C8B
:1015C0005200B3FBF2F202608968084AC1F30311CA
:1015D000103A515C0268CA40026070BDB4FBF2F27E
:1015E000E6E7B5FBF2F2E3E700100240A03B00089B
:1015F000000000200024F4000D48016841F470014F
:1016000001600C48016841F0010101600021816026
:101610000268094B1A4002608214C260026822F418
:101620008022026081610249C003803908607047EE
:1016300088ED00E000100240FFFFF6EA90F8241069
:10164000C90706D001684A68836A22F400321A4347
:101650004A6090F82410890706D501684A68C36A71
:1016600022F480321A434A6090F82410490706D5C4
:1016700001684A68036B22F480221A434A6090F89A
:101680002410090706D501684A68436B22F400421A
:101690001A434A6090F82410C90606D501688A6882
:1016A000836B22F480521A438A6090F824108906D2
:1016B00006D501688A68C36B22F400521A438A6017
:1016C00090F82410490611D501684A68036C22F489
:1016D00080121A434A60016CB1F5801F06D101687F
:1016E0004A68436C22F4C0021A434A6090F82410FE
:1016F000090606D501684A68806C22F4002202437C
:101700004A607047F8B5002604464667FEF774FF46
:101710000546206800686FF07E47000708D52B4615
:1017200000224FF400112046009700F055F960B9EF
:101730002068006840070AD52B4600224FF480013C
:101740002046009700F048F908B10320F8BD20209A
:1017500084F8710084F8720084F870600020F8BD8D
:101760002DE9F0410446016880682369E669184361
:10177000636910250027334318438C4A0B688C4E4D
:10178000334003430B6020684168E36821F4405113
:10179000194341602168A069914201D0236A18432E
:1017A0008B6823F4306303438B60824B216882484B
:1017B00099420DD1D0F8880010F0030006D001281E
:1017C00048D0022844D0032847D145E0012544E011
:1017D0007A4B99420BD1D0F8880010F00C0035D02C
:1017E000042837D0082833D00C2836D134E0744B85
:1017F00099420BD1D0F8880010F0300026D0102884
:1018000028D0202824D0302827D125E06D4B9942BC
:101810000BD1D0F8880010F0C00017D0402819D0A4
:10182000802815D0C02818D116E0914215D1D0F8E3
:10183000880010F4406009D0B0F5806F0AD0B0F590
:10184000006F05D0B0F5406F07D105E0002504E03A
:10185000022502E0042500E008255B4B00264FF43A
:10186000004091423DD135B1022D07D0042D07D063
:10187000082D10D107E0FFF783F903E0184602E0D6
:10188000FFF79EF9A8B3626802EB4201814202D8D9
:10189000B0EB023F01D9012775E0DFF830815DB17F
:1018A000022D0CD0042D13D0082DF4D15008290599
:1018B000401846F1000105E0FFF762F90AE0500820
:1018C0004349F5E70023FEF70FFDA0F5407156E010
:1018D000FFF776F96268010E03025008181871418B
:1018E000F0E7E1694FF6EF7881422FD1092DD2D28E
:1018F00000E048E0DFE805F00609200523050505BE
:101900002600C8E7FFF73CF901E0FFF749F941007D
:10191000D4F8040001EB5001B1FBF0F080B2A0F16B
:1019200010014145B7D84FF6F0710140C0F34200B5
:1019300001432068C16026E026496068EAE7FFF7B6
:101940003FF9E4E74FF480316068E3E7092DA2D264
:10195000DFE805F006091E052205050525009AE7C2
:10196000FFF70EF901E0FFF71BF90146606801EB94
:10197000500100BFB1FBF0F080B2A0F11001414571
:1019800089D82168C860266638466666BDE8F08159
:10199000606803EB5001EDE7FFF712F9E5E76168D6
:1019A00000EB5100B0FBF1F0E6E7000000800040E2
:1019B000F369FFEF0038014000100240004400408E
:1019C00000480040004C00400024F400FFFC0F00E1
:1019D000000024F40048E8012DE9F041984617463C
:1019E0000E460446069D1DE0681C1BD02DB1FEF777
:1019F00003FEA0EB0800A84214D92068016821F476
:101A0000D07101602068816821F00101816020208F
:101A100084F8710084F87200002084F870000320BC
:101A2000BDE8F0812068C06936EA000004D00020DB
:101A3000B842D9D00020F3E70120F9E7002807D009
:101A40000E4910F0FF0F04D051FA80F00078401CCE
:101A5000704710F47F4F04D0C0F30720085C0930B2
:101A6000704710F47F0F04D0C0F30740085C1130BA
:101A7000704701EB1060007819307047D83B0008C0
:101A800002E008C8121F08C1002AFAD17047704747
:101A9000002001E001C1121F002AFBD170470000A5
:101AA00003480168814201D001207047002070473F
:101AB00084000020F0B597B0064650221A4902A8CB
:101AC000FEF746FC19A7384601F032FC04463046C2
:101AD00000F00CFF0546A04200DA25463A462946AA
:101AE00014A001F013FA284600F01AFF1BA001F021
:101AF0000DFA02AF346811E0207AA17BA4F10C0347
:101B0000132802D857F8200000E01598CDE900010D
:101B1000082229461AA001F0F9F92468B442EBD151
:101B200017B00020F0BD0000B03D00086465766984
:101B300063650000252D2A2E7320202020202020E0
:101B40002020747970652020202020202020207201
:101B5000656620636F756E740A000000202D2D2DC0
:101B60002D2D2D2D2D2D2D2D2D2D2D2D2D2D2D2DA5
:101B70002D202D2D2D2D2D2D2D2D2D2D0A0000004C
:101B8000252D2A2E2A7320252D32307320252D381D
:101B9000640A00002DE9FE43074625A6304601F001
:101BA000C7FB0446384600F0A1FE0546A04200DA15
:101BB00025463246294620A001F0A8F9284600F023
:101BC000AFFE26A001F0A2F93E682BE0B16806F155
:101BD0000800A6F10C04814204F1140014D08046E0
:101BE00001F0CDF9218C628CCDE9002102902346D1
:101BF0000822294620A001F089F9404601F096FF0D
:101C000023A001F083F90CE001F0B9F9218C628C7A
:101C1000CDE9002102902346082229461DA001F0AB
:101C200075F93668BE42D1D1002000F03FB80000FF
:101C30006D61696C626F7800252D2A2E7320656EA8
:101C40007472792073697A652073757370656E6438
:101C5000207468726561640A00000000202D2D2D3B
:101C60002D20202D2D2D2D202D2D2D2D2D2D2D2DCB
:101C70002D2D2D2D2D2D0A00252D2A2E2A732025C0
:101C80003034642020253034642025643A0000007C
:101C90000A000000252D2A2E2A73202530346420C6
:101CA00020253034642025640A00000006BCBDE80D
:101CB000F88300002DE9FC41074600F017FE0646B8
:101CC000092800DA09261DA231461FA001F01EF9DD
:101CD000304600F025FE23A001F018F93D6827E00A
:101CE000A96805F10800A5F10C04814204F1140073
:101CF00012D0804601F043F9A18BCDE900102346B4
:101D0000082231461DA001F001F9404601F00EFF06
:101D100013A001F0FBF80AE001F031F9A18BCDE945
:101D2000001023460822314618A001F0EFF82D6874
:101D3000BD42D5D10020BDE8FC81000073656D6116
:101D400070686F7265000000252D2A2E73207620A2
:101D5000202073757370656E6420746872656164A9
:101D60000A000000202D2D2D202D2D2D2D2D2D2D67
:101D70002D2D2D2D2D2D2D0A00000000252D2A2E74
:101D80002A7320253033642025643A00252D2A2E1D
:101D90002A7320253033642025640A002DE9FC4194
:101DA000064600F0A3FD0746014626A2274801F09B
:101DB000ADF8384600F0B4FD25A001F0A7F835686D
:101DC0003AE000BF95F82900A5F10C0400902346E5
:101DD000082239462EA001F099F894F8340000F05A
:101DE0000F00012805D0022805D030B1042806D004
:101DF00008E02AA004E02CA002E02EA000E030A021
:101E000001F084F8A06A014600E0401C0278232A11
:101E1000FBD0E26A401A101A64235843B0FBF2F375
:101E2000D4F830C0206CCDE9000CE069081A8118A4
:101E300026A001F06BF82D68B542C3D10020BDE8A3
:101E4000FC8100007468726561640000203E000837
:101E5000202D2D2D20202D2D2D2D2D2D2D202D2DE6
:101E60002D2D2D2D2D2D2D2D202D2D2D2D2D2D2DAF
:101E70002D2D2D20202D2D2D2D2D2D20202D2D2DC6
:101E80002D2D2D2D2D2D2D202D2D2D0A0000000066
:101E9000252D2A2E2A7320253364200020726561A7
:101EA00064792020000000002073757370656E64F3
:101EB0000000000020696E697420202000000000EE
:101EC00020636C6F736520200000000020307825AF
:101ED0003038782030782530387820202020253080
:101EE0003264252520202030782530387820253090
:101EF00033640A002DE9FC41054600F0F7FC064674
:101F0000014616A217A001F001F8304600F008FDC6
:101F10001EA000F0FBFF2C6815E000BFA4F10C032D
:101F20001F460822D7E90901CDE90001314620A06A
:101F300000F0ECFF787AC00701D023A000E025A0D4
:101F400000F0E4FF2468AC42E8D101F0A7FB0146B1
:101F500024A000F0DBFF0020BDE8FC8174696D6502
:101F600072000000252D2A2E732020706572696F83
:101F700064696320202074696D656F75742020206A
:101F800020202020666C61670A000000202D2D2D86
:101F90002D2D2D2D2D2D2D202D2D2D2D2D2D2D2D7E
:101FA0002D2D202D2D2D2D2D2D2D2D2D2D2D0A00BE
:101FB000252D2A2E2A732030782530387820307845
:101FC000253038782000000061637469766174659B
:101FD000640A000064656163746976617465640A0B
:101FE0000000000063757272656E74207469636B23
:101FF0003A3078253038780A000000002DE9F04F9B
:102000008BB092468B460646002400E0641C305D8F
:10201000202803D0092801D05C45F7D34FF0FF38C2
:102020007CB3194804F10609184F056811E006222F
:1020300017A12868FEF7CCF950B928682246314626
:10204000801DFEF7C5F918B9296811F8090020B1FB
:10205000083538688542EAD314E06C688CB12821D1
:102060006846FEF78EF96A465946304600F0D6FBC0
:1020700038B16946A047CAF8000000200BB000F054
:102080000BB8FFE74046F9E79C000020A0000020C5
:102090005F5F636D645F000030BCBDE8C08F00000F
:1020A0002DE9FC411F460446DDE90831DDE90A65FA
:1020B000143040600060C4E90827C4E90A310A46C8
:1020C000232118461C3400F087FFD4E9030142188D
:1020D000D4E90101104B121F00F0AEFE44F81A0BB8
:1020E000002004F801690D4A04F8036BE4E80205D6
:1020F00044F8105901C404F83C0B01C444F87409B5
:10210000009023460190194604F1440001F03EFB83
:102110000020BDE8FC810000F93300081B360008F0
:10212000F0E905124A60D0E90012116040600060D9
:10213000704710B500F081FA002010BD00207047F4
:1021400010B500F069FB08B105A100E006A1084840
:10215000FEF735F907A10648FEF71EF9044810BD41
:102160006D7368200000000066696E7368200000CF
:10217000500400203E000000034810B5006801F044
:102180001DF8002010BD00009800002070B5044626
:1021900000F0D8FC050027D0174C2068406FA842FB
:1021A00028D040F24311284600F0F6FC002821D147
:1021B0002068406F30B100F0ADFC20680021406F16
:1021C00000F050FD206850212230FEF7DAF8206838
:1021D000002180F8721080F8731045672846BDE82A
:1021E0007040064900F03EBD2146BDE8704004A0A5
:1021F00000F08CBE70BD000098000020792100081E
:1022000066696E73683A2063616E206E6F74206633
:10221000696E64206465766963653A2025730A00F7
:10222000024A106002480160704700009C000020D4
:10223000A00000201FB513491348FFF7F1FF144811
:10224000124C782104602046FEF79BF800231A46C2
:1022500010A1204600F0A0FF0A2306224FF40071CF
:10226000A4F500708DE80F0000230C4A0CA178380B
:1022700001F040F918B9A4F51E7001F09BF904B003
:10228000002010BD244000089C3F00084C0700209F
:10229000980000207368727800000000A9220008EE
:1022A000747368656C6C0000AF4C08B5206801273A
:1022B00080F82170406F20B900F012FC08B1FFF7E0
:1022C00065FFFFF73DFF00F021FE4FF0FF364FF0B6
:1022D000000A03E03146206800F08BFF20680123EC
:1022E0006A46406F314600F0ABFC0128F2D19DF800
:1022F00000501B2D08D02068A04690F8201001291E
:1023000006D002290DD016E0206880F82070E5E79D
:102310005B2D02D080F820A00DE0022180F8201073
:10232000DCE780F820A0412DD8D0422DD6D0442D16
:102330003CD0432D48D0002DD0D0FF2DCED0092D3C
:1023400054D07F2D7DD0082D7ED00D2D7AD00A2D32
:10235000FCD090F87210502902D3514680F872A038
:1023600090F87330C9B28B426DD2CA1A00F12201C3
:1023700023301944184400F015FED8F8000090F8F6
:10238000731022300D54D8F8000090F82110C907BE
:1023900006D090F873102230014474A000F0B6FD0E
:1023A000D8F80000C14690F87350B6E090F873007A
:1023B000002893D06EA000F0A9FDD8F8001011F805
:1023C000730F401E087089E790F8731090F8722020
:1023D000914283D22230095C66A000F097FDD8F8C4
:1023E000000010F8731F491C017077E7002503E017
:1023F0005FA000F08BFD6D1CD8F8000090F8730012
:10240000A842F5DCD8F800505BA0223500F07EFD34
:1024100000F002FA012802D1284600F03FF9FFF748
:102420008FFE01462A4655A000F070FDD8F8000046
:102430002230FDF7BDFFD8F8001001F8720F487088
:102440004CE701E043E06FE090F87320002ABAD037
:1024500090F87210521E491EC9B2D3B280F87210A1
:1024600080F87330994227D9CA1A00F1230122302B
:102470001944184400F096FDD8F8000090F8722036
:10248000223002F800A0D8F8000090F87310223033
:1024900001443CA000F03AFDD8F8000090F87350D9
:1024A00003E033A000F032FD6D1CD8F8000090F876
:1024B0007200A84287DBF4E734A000F027FDD8F8CB
:1024C000000090F87220223002F800A006E700F029
:1024D000A3F901280FD1D8F80000454690F8210053
:1024E000C00702D024A000F011FD286890F87210F7
:1024F000223000F029F9FFF723FE00F007FDD8F89D
:10250000000050212230FDF73CFF5146D8F8000072
:1025100026E017A000F0FAFC6D1CD9F8000090F836
:102520007200A842F5DC0BE022300D54D8F8000010
:1025300090F82100C00703D029460EA000F0E6FC69
:10254000D8F8000090F87210491CC9B280F87210D7
:1025500090F87320521C80F873205029B6D351464E
:1025600000F8721F4170B9E6980000202573000042
:1025700008000000256300000A0000002573257391
:102580000000000008257320200800000820080033
:1025900010B502A000F0BAFC002010BD48656C6CBC
:1025A0006F2052542D546872656164210A00000046
:1025B00070B50BA000F0AAFC0E480F4D04680AE0AD
:1025C00002220EA12068FDF703FF18B10CA02168BC
:1025D00000F09CFC083428688442F1D3002070BDD0
:1025E0002D2D46756E6374696F6E204C6973743A55
:1025F0000A0000009C000020A00000205F5F000097
:1026000025730A0010B5082000F01AFDBDE810403F
:10261000001DFFF74FBA10B5042000F011FDBDE812
:102620001040001DFFF7B6BA10B5012000F008FDFC
:10263000BDE81040001DFFF73DBB10B5002000F0C5
:10264000FFFCBDE81040001DFFF7A8BB10B5092036
:1026500000F0F6FCBDE81040001DFFF74BBC4FF04A
:102660009044002220212046FDF7C1FF322000F0D7
:10267000C0FE012220212046FDF7B9FF322000F0E4
:10268000B8FE002220212046FDF7B1FFE9E710B592
:1026900000F018FABDE81040FFF7E1BF2DE9F04760
:1026A0008046002500782C4618B12248224F066843
:1026B00031E0BDE8F0470021084600F077B8062277
:1026C0001EA13068FDF784FE20BB306800F10609CA
:1026D0004046FDF76DFE024649464046FDF778FE4E
:1026E000C0B925B94C464846FDF762FE0546494645
:1026F000204601E0401C491C02781AB10B780BB14E
:102700009A42F7D0001BA84200DA054649460DA0C0
:1027100000F0FCFB083638688642D0D3002C06D087
:102720002A4621464046BDE8F04700F019BEBDE804
:10273000F08700009C000020A00000205F5F636D18
:10274000645F000025730A0038B5044601E0491EA5
:10275000641C20782028FAD00928F8D031B16A46C4
:102760002046FFF74BFC18B1204604E0002038BD9E
:10277000009838BD401C0178202901D00029F9D1EA
:1027800000210170214603A000F0C0FB4FF0FF3094
:1027900038BD000025733A20636F6D6D616E642053
:1027A0006E6F7420666F756E642E0A0070B50DA092
:1027B00000F0ACFB1248134D04680BE0062212A196
:1027C0002068FDF705FE20B9216811A0891D00F0E1
:1027D0009DFB083428688442F0D30EA000F096FBDD
:1027E000002070BD52542D54687265616420736876
:1027F000656C6C20636F6D6D616E64733A0A0000E6
:102800009C000020A00000205F5F636D645F0000FB
:1028100025730A000A0000000120704770B50023EC
:1028200015461C461A464BE000F8012B5B1C067847
:10283000202E01D0092E01D18B42F5D30A2C11D3C1
:1028400021A000F063FB002606E000BF55F826102B
:1028500025A000F05BFB761CA642F7D321A000F078
:1028600055FB2FE08B422DD2F6B2222E03D045F835
:102870002400641C1BE0401C45F824005B1C641C05
:1028800008E05C2E04D14678222E01D1401C5B1C4E
:10289000401C5B1C0678222E01D08B42F1D38B4268
:1028A00010D200F8012B5B1C0AE0401C5B1C067870
:1028B000202E03D0092E01D08B42F6D38B4201D2B9
:1028C0008B42B4D3204670BD546F6F206D616E791A
:1028D00020617267732021205765206F6E6C79200C
:1028E0005573653A0A0000002573200070B506464E
:1028F000002500F0CDF9346808E000BFA4F10C0019
:1029000000F016FDA84200DD05462468B442F5D16A
:1029100000F0CCF9082D00DC05B90825284670BD6B
:1029200010B5044602E003A000F0F0FA641EFAD2EB
:1029300010BD00002D0000002DE9F04F85B0994634
:10294000DDE90EA5109C630602D5DFF814C103E093
:10295000DFF80CC1ACF1110CE30601D524F0010441
:10296000E30701D0302300E0202300260493A307CF
:102970000BD5002A02DA2D26524206E0630701D564
:102980002B2602E0230700D5202600234FF0300E2F
:10299000EB461AB98DF800E001230CE0B9F10A0FFB
:1029A00014D002F00F0812091CF808800BF80380FD
:1029B0005B1C002AF2D1AB4200DD1D46AAEB0502EA
:1029C00014F0110F4FF0200708D015E00A27B2FBD2
:1029D000F7F807FB1828B2FBF7F2E5E73EB1002A4B
:1029E00005DD521E03E0884200D80770401CB2F19A
:1029F000000CA2F10102F6DC26B1884201D8067073
:102A0000521E401CE40605D508E0884201D8049C0B
:102A10000470401C141EA2F10102F6DC74462E461E
:102A20006D1E9E420ADD884200D80470401CF6E705
:102A3000884201D8E55C0570401C00E05C461D1E24
:102A4000A3F10103F4DC03E0884200D80770401CC6
:102A5000131EA2F10102F7DC05B000F003B800007C
:102A6000E93C000830BCBDE8C08F00001FB50A4C2F
:102A700002221423D101A4F580708DE80F000023F9
:102A8000064A07A1204600F035FD04B02046BDE807
:102A9000104000F08FBD0000200200208F260008AB
:102AA0006D61696E0000000070B5044C044D02E0D9
:102AB00020688047241DAC42FAD370BD843F0008D3
:102AC000903F000870B5044C044D02E02068804738
:102AD000241DAC42FAD370BD903F0008983F000817
:102AE00001480068704700002000002070B5084CC5
:102AF000266800F027F8050008D0206808B100F02B
:102B000009F84321284600F047F82560304670BD9B
:102B10002000002010B504460020A17E29B1491EE6
:102B200011F0FF01A17603D010BD4FF0FF3010BDB2
:102B3000E16A21B12046884708B1811DF7D1002103
:102B4000218310BD2DE9F041064600F00DFD08B1CE
:102B500000F09EF8082000F073FA50F8044F074682
:102B600009E000BFA4F10C0508223146284600F018
:102B7000E7FB50B12468BC42F4D100F0F5FC08B189
:102B800000F094F80020BDE8F08100F0EDFC08B101
:102B900000F08CF82846F6E770B50446807D0025E5
:102BA0000E46C0060FD4616A49B120468847050029
:102BB00005D00246214614A000F0A8F921E0E08AE1
:102BC00040F01000E082A07D000705D5207E0007C0
:102BD00002D56FF0060070BDA26A3AB131462046B8
:102BE0009047050006D0A81D04D00AE040F60F70FB
:102BF00006402683208B40F008002083A07E401CE6
:102C0000A076284670BD0000546F20696E69746913
:102C1000616C697A65206465766963653A2573201D
:102C20006661696C65642E20546865206572726FF8
:102C30007220636F64652069732025640A000000B8
:102C400010B5847E2CB1046B34B1A446BDE81040AD
:102C500060474FF0FF3001E06FF0050000F000FB2F
:102C6000002010BDC1610020704710B5847E2CB1DA
:102C7000446B34B1A446BDE8104060474FF0FF30CC
:102C800001E06FF0050000F0EBFA002010BD00003D
:102C900010B5FDF79BFA044A5188491C5180BDE8E4
:102CA0001040FDF797BA00007800002010B5FDF73E
:102CB0008DFA09494A88521E12B24A80002A07DC5E
:102CC00000224A80FDF786FABDE8104000F0F0B916
:102CD000BDE81040FDF77EBA7800002010B5FEF781
:102CE000F4FBFEF735FC0D4864210068B0FBF1F001
:102CF000401EB0F1807F09D24FF0E021084A4861C0
:102D0000FF2010700020886107200861FFF7CCFECB
:102D1000BDE8104003A0FFF7E9BE0000000000205E
:102D200023ED00E07561727432000000704700000E
:102D300010B504461848016819B120468847002894
:102D400028D016A0E16900F0E1F818A0A16900F010
:102D5000DDF81AA0616900F0D9F81CA0216900F023
:102D6000D5F81EA0E16800F0D1F820A0A16800F01D
:102D7000CDF822A0616800F0C9F824A0216800F015
:102D8000C5F800F0F1FB014624A000F0BFF8FFF702
:102D900054FCFEE710BD0000080000207073723A7A
:102DA000203078253038780A000000002070633A1F
:102DB000203078253038780A00000000206C723A04
:102DC000203078253038780A000000007231323A1D
:102DD000203078253038780A000000007230333A0D
:102DE000203078253038780A000000007230323AFE
:102DF000203078253038780A000000007230313AEF
:102E0000203078253038780A000000007230303ADF
:102E1000203078253038780A00000000686172643C
:102E2000206661756C74206F6E20746872656164D1
:102E30003A2025730A00000070B50446121D22F0E6
:102E4000070000220A4D443840F82250521C112A33
:102E5000FAD3416200218162C16200F13402016350
:102E600082E81A004FF080730364016070BD0000B7
:102E7000EFBEADDE10B5FDF7A9F9044A1178491C83
:102E80001170BDE81040FDF7A5B900001C0000203E
:102E900001480078704700001C00002010B5FDF7C5
:102EA00095F9044A1178491E1170BDE81040FDF7EC
:102EB00091B900001C0000202DE9F041064614469F
:102EC0000D46084600F08CFB05F11407B4B1012C47
:102ED00018D134680EE000BF95F8351094F8212021
:102EE000A4F11400914204D23946143000F040F8A5
:102EF00002E02468B442EFD1B44203D139463046EF
:102F000000F036F80020BDE8F08100000FB47F210A
:102F100070B505AB0D48049A00F0AEFC03467F285F
:102F200000D97F230A4D286860B1048B074A44F01A
:102F3000400101830021FFF798FE2868048370BCDC
:102F40005DF814FB0148FFF7F1FEF8E7900300205D
:102F5000200000200268516002680A600160486039
:102F600070470268516002680A60016048607047FB
:102F70004268116042684A604160086070470246DA
:102F8000002100E0491C00689042FBD108467047D0
:102F9000D0E900124A60D0E9001211604060006080
:102FA0007047000010B50346994211D28C189C421C
:102FB0000ED9811804E000BF14F8013D01F8013D6D
:102FC000521EF9D210BD00BF11F8014B03F8014B9E
:102FD000521EF9D210BD000010B50346CCB2042A2F
:102FE0001AD3810718D1194644EA042343EA03435C
:102FF00006E008C1103A08C141F8083B41F8043C1A
:10300000102AF6D201E008C1121F042AFBD20B4697
:1030100002E000BF03F8014B521EFBD210BD10B5F9
:103020000446FDF7D3F8F4E903124A60D4E900122C
:10303000116064602460BDE81040FDF7CBB800006B
:10304000074A002102EB01131B78834202D102EBF5
:1030500001107047491C0529F4DB0020704700006F
:10306000280000202DE9F041044617460E46084688
:10307000FFF7E6FF054646F0800020720822394639
:10308000204600F06DF9FDF7A1F855F8041F0C3447
:103090004C60296821602C606560BDE8F041FDF757
:1030A00099B8007A000601D50120704700207047CA
:1030B00070B5FDF78BF8114C05466088B0B9A06873
:1030C000FEF7BCFC0E49401E626851F830101439FE
:1030D00091420BD020700B486160007801F11C0117
:1030E000002802F11C0006D0FDF777F82846BDE85D
:1030F0007040FDF76FB8FDF770F8F7E77800002033
:10310000100400201C00002070B50546FDF75EF895
:103110000146012085F8340095F835000A4A05F18A
:10312000140402EBC000426814604268AA61446063
:1031300068610648AA6B83681A438260BDE87040E4
:103140000846FDF747B80000100400207800002072
:1031500010B50446FDF73AF804F11401D1E9002353
:103160005360D1E900231A60A161616194F83520B0
:10317000074951F8323001EBC2018B4204D10549B5
:10318000A36B8A689A438A60BDE81040FDF722B8B5
:1031900010040020780000202DE9F04116460A4670
:1031A0001F4605460121FFF75DFF05F11404AC61E0
:1031B0006C61AE836F720020BDE8F08170B504468B
:1031C000FDF704F80546606904F11401884208D04F
:1031D000143800F0AAF92846FCF7FCFFFFF768FF57
:1031E00005E0A08B401CA0832846FCF7F3FF0020DD
:1031F00070BD73B50546FCF7E9FF0646A88B28B1FC
:10320000401EA8833046FCF7E5FF21E0019808B393
:1032100000F0AAF90446002020636A7A214605F1ED
:103220001400FFF749FE0198002809DD04F144006D
:1032300001AA0021054600F081FA284600F0BEFAF6
:103240003046FCF7C7FFFFF733FF206B002800D1A3
:1032500000207CBD3046FCF7BDFF6FF001007CBD57
:1032600070B50446FFF714FE044D20B900F07CF958
:1032700008B1046370BD6C6070BD000020000020C8
:1032800008B509A0FFF742FE0AA0FFF73FFE12A013
:10329000032300900022194612A0FFF737FEBDE875
:1032A000084018A0FFF732BE0A205C207C202F0ABD
:1032B000000000002D205254202D202020202054DA
:1032C0006872656164204F7065726174696E672011
:1032D00053797374656D0A00466562203238203276
:1032E00030313800202F207C205C20202020202519
:1032F000642E25642E2564206275696C6420257314
:103300000A0000002032303036202D203230313794
:1033100020436F70797269676874206279207274D3
:103320002D746872656164207465616D0A00000027
:10333000014600E0491C0A78002AFBD1081A7047B0
:1033400010B5002308E0047811F8013BE31A5BB2E2
:1033500023B9401C14B1521E002AF4D1184610BDE6
:1033600010B5002A07D0034611F8014B03F8014BB2
:103370002CB1521EF8D110BD03F8011B00E0002152
:10338000521EF9D110BD000010B50A4900230A4CA5
:103390004B80184604EBC002401C526012600828A3
:1033A000F8DB0720087003484B600C308B604060EE
:1033B000006010BD780000201004002010B5074CFC
:1033C000A068FEF73BFB0649401E51F83000143858
:1033D0006060BDE810401C30FCF745BF780000205D
:1033E00010040020014840600060704790000020F9
:1033F000704700F0BFB8000070B513480468FCF7D0
:10340000E5FE05462046FFF7A3FE042084F83400BD
:1034100004F1440000F0AAF92046FFF742FE01281B
:1034200001D1206F58B104F114010848FFF792FD53
:103430002846FCF7CFFEBDE87040FFF739BE2046B6
:10344000FFF7EDFDF4E700007C0000208400002081
:1034500000F002F8FCE7000070B521E0FCF7B6FED2
:103460000546FEF71DFB10B313480168A1F11404D3
:10347000D1E900024260D1E90002106049600960B0
:10348000FFF706FC216F09B1204688472046FFF769
:1034900008FE012809D0FFF709FC2846FCF79AFE30
:1034A000FEF7FEFA0028D9D170BDFFF7FFFB2846D2
:1034B000BDE87040FCF78EBE840000201FB50948AF
:1034C0002023072280218DE80F000023064A07A150
:1034D000783800F00FF804B00248BDE810407838A2
:1034E00000F068B810030020513400087469646C5F
:1034F000650000002DE9FF5F92460EAA0C4692E897
:10350000E0010A46994683460021FFF7ABFD8DE8AE
:10351000E0014B46524621465846FEF7C1FD04B035
:1035200000F000B830BCBDE8C09F70B5044690F80C
:10353000340000F00F00022802D04FF0FF3070BDC1
:10354000FCF744FE054604F11400FFF721FD04F1E9
:10355000440000F079F92846FCF73CFE2046FFF7CE
:10356000D3FD002070BD00000148006870470000D6
:103570007C000020F1B5FCF729FE05460C480468E4
:10358000204600F02DF804F144006A46002106466A
:1035900000F0D4F8304600F011F92846FCF71AFE86
:1035A000FFF786FD206B801C00D120630020F8BD52
:1035B0007C00002010B590F83610012280F83510FC
:1035C0008A400221826380F83410FFF7AEFF03487F
:1035D000006808B1FFF76CFD002010BD7C000020E2
:1035E00070B5044690F8340000F00F00012802D0B6
:1035F0004FF0FF3070BDFCF7E9FD0546022084F86E
:1036000034002046FFF7A4FD04F1440000F01CF94B
:103610002846FCF7DFFD002070BD10B504466FF0B2
:103620000100206304F11400FFF7B2FC2046FFF70D
:103630006BFDBDE81040FFF73BBD000070B5FCF727
:10364000C5FD06461348046894F8340000F00F00E6
:10365000012819D1D4E90501884215D004F11400DC
:103660000546FFF795FC94F835000B4901EBC000C7
:1036700041680D6041686960456028603046FCF72C
:10368000A9FDFFF715FD02E03046FCF7A3FD002081
:1036900070BD00007C00002010040020014800687C
:1036A0007047000018000020094810B50168491C47
:1036B0000160FFF759FF016C491E016403D1C16B22
:1036C0000164FFF7BBFFBDE8104000F003B8000045
:1036D000180000202DE9F041FFF7E0FF0646FCF757
:1036E00075FD0746144D1EE060696FF00041301A09
:1036F000143C88421AD22046FEF712FDD4E9071086
:103700008847FFF7CBFF0646607A810708D5C107D7
:1037100006D020F001006072204600F04FF802E071
:1037200020F0010060722C68AC42DDD13846BDE863
:10373000F041FCF74FBD00009000002049B1012985
:1037400004D0022908D003290ED109E0406A106094
:103750000AE01168416207E0417A21F0020102E0CB
:10376000417A41F0020141720020704770B5054670
:10377000FCF72CFD04462846FEF7D2FC2046FCF759
:1037800029FD2846FFF74BFC002070BD2DE9F041D4
:103790001746DDE906580A461E4604460921FFF78A
:1037A00061FC28F0010161720021C4E90951C4E9FA
:1037B0000776143464602460BDE8F081F8B50446EF
:1037C000FCF704FD05462046FEF7AAFC607A20F0CF
:1037D000010060722846FCF7FDFCFFF75FFF616A9D
:1037E0000844A062FCF7F2FC0546164A002000924D
:1037F00002EBC002694653686FF0004C5DF8202070
:103800000BE01268A2EBC0067769A66AB74202D045
:10381000BE1B664503D341F820209A42F1D10948E6
:10382000001F0168491C016004F114010098FFF7B2
:1038300098FB607A40F0010060722846FCF7CAFCF1
:103840000020F8BD9000002070B50446407AC00703
:103850000ED0FCF7BBFC05462046FEF761FC28466F
:10386000FCF7B8FC607A20F001006072002070BDA7
:103870004FF0FF3070BD00002DE9FF4F47180446A0
:103880007F1E83B080464FF0FF394FF0200A4FF083
:10389000250BA74200D24F4608E1252803D0BC42A1
:1038A00000D8207081E000260599491C0591087810
:1038B0002D2811D02B2812D0202813D0232814D043
:1038C000302815D00A784D46303A0A2A13D205A876
:1038D00000F044F905461AE046F01006E4E746F029
:1038E0000406E1E746F00806DEE746F02006DBE7DF
:1038F00046F00106D8E72A2809D10698491C059107
:1039000020C80690002D02DA6D4246F01006CDF870
:103910000090059801782E2918D1401C0590017857
:10392000A1F130020A2A04D205A800F017F900908C
:1039300008E02A2908D1401C0590069802C8069084
:1039400000910846002801DA00200090059A002026
:103950001178682901D06C2902D1521C08460592C1
:1039600011780A236F296ED00CDC63291FD004DC88
:10397000252979D058290DD17FE0642901D0692902
:1039800008D17EE0702960D073292CD075297AD0B7
:10399000782974D0BC4201D884F800B00598641C22
:1039A0000178D1B3BC4200D82170641C7BE0F006E2
:1039B00008D450466D1E002D04DDBC4200D8207096
:1039C000641CF7E70698BC4210F8041B069000D868
:1039D0002170504602E0BC4200D82070641C6D1E6D
:1039E000002DF8DC5FE0069808C8069003B93DA3F7
:1039F0001846FFF79DFC0099002902DD884200DD92
:103A00000846F1060AD451462A466D1E824205DD5B
:103A1000BC4200D82170641CF6E750E0002106E0AB
:103A2000BC4201D81A782270491C5B1C641C81427C
:103A3000F6DB524629466D1E814234DDBC4200D879
:103A40002270641CF6E716E00EE0681C02D108251F
:103A500046F0010600980296CDE900500698102322
:103A6000394604C806901AE0BC429ED884F800B0DB
:103A70009BE708E003E0082305E046F0400610233A
:103A800001E046F002066C2801D068281AD006989A
:103A900004C8069000983946CDE9005002962046A9
:103AA000FEF74AFF04460598401C059005980078EB
:103AB00000287FF4F2AEBC420DD820700CE0401E0E
:103AC0000590F0E7069830F8041B06908AB2B0071C
:103AD000E0D512B2DEE7387007B0A4EB080000F0C2
:103AE00005B80000284E554C4C29000030BCBDE8FC
:103AF000C08F0020704700207047002070470020D2
:103B0000704710B5FCF762FBFFF7E8F8FFF7B8FB6A
:103B1000FFF768FCFFF738FCFEF7A8FFFFF768FC2B
:103B2000FFF7CCFCFFF74AFC002010BD70B505463E
:103B300004680BE0A4F1140106A0FFF7E7F9206880
:103B4000A84202D004A0FFF7E1F92468AC42F1D109
:103B500070BD0000257300002F00000010B5014665
:103B600000206FF02F0307E0541C0C60127800EB6C
:103B7000800003EB400010440A681478303C0A2CA3
:103B8000F2D310BD10B5FFF77BFB002010BD000085
:103B900000000000000000000102030406070809FD
:103BA000A0860100400D0300801A060000350C00BD
:103BB00040420F0080841E0000093D0000127A0080
:103BC0000024F40000366E010048E801006CDC02BD
:103BD00000000000010203040000010002000100D7
:103BE00003000100020001000400010002000100C6
:103BF00003000100020001000500010002000100B5
:103C000003000100020001000400010002000100A5
:103C10000300010002000100060001000200010093
:103C20000300010002000100040001000200010085
:103C30000300010002000100050001000200010074
:103C40000300010002000100040001000200010065
:103C50000300010002000100070001000200010052
:103C60000300010002000100040001000200010045
:103C70000300010002000100050001000200010034
:103C80000300010002000100040001000200010025
:103C90000300010002000100060001000200010013
:103CA0000300010002000100040001000200010005
:103CB00003000100020001000500010002000100F4
:103CC00003000100020001000400010002000100E5
:103CD0000300010002000100303132333435363741
:103CE00038396162636465660030313233343536A9
:103CF00037383941424344454600000068656C6CE2
:103D00006F0076657273696F6E005F5F636D645FED
:103D100076657273696F6E006C6973745F74687234
:103D2000656164005F5F636D645F6C6973745F7489
:103D30006872656164006C6973745F73656D005FC0
:103D40005F636D645F6C6973745F73656D006C694C
:103D500073745F6D61696C626F78005F5F636D643F
:103D60005F6C6973745F6D61696C626F78006C6918
:103D700073745F74696D6572005F5F636D645F6C1F
:103D80006973745F74696D6572006C6973745F64E4
:103D90006576696365005F5F636D645F6C6973740A
:103DA0005F646576696365006C6973740000000088
:103DB000183F0008D43E0008683E00087C3E00081A
:103DC000943E0008643E0008B03E0008A03E000893
:103DD000543F0008C03E0008703F00085C3F0008E8
:103DE000883E0008643F0008F43E0008443F000895
:103DF000E43E0008083F00082C3F00084C3F000844
:103E00005F5F636D645F68656C70005F5F636D64C6
:103E10005F7073005F5F636D645F74696D65000060
:103E2000252D2A2E73207072692020737461747599
:103E300073202020202020737020202020207374E5
:103E400061636B2073697A65206D61782075736595
:103E500064206C656674207469636B2020657272DF
:103E60006F720A00525443004E6574776F726B2074
:103E7000496E746572666163650000004D544420AC
:103E8000446576696365000053504920446576694E
:103E90006365000043414E20446576696365000018
:103EA00047726170686963204465766963650000E4
:103EB000536F756E64204465766963650000000089
:103EC00055534220536C617665204465766963657D
:103ED00000000000426C6F636B2044657669636587
:103EE00000000000506F7274616C20446576696355
:103EF00065000000504D2050736575646F20446567
:103F0000766963650000000054696D657220446540
:103F100076696365000000004368617261637465DF
:103F20007220446576696365000000004D69736323
:103F3000656C6C616E656F75732044657669636549
:103F4000000000005069706500000000556E6B6E47
:103F50006F776E00493243204275730053504920F9
:103F6000427573005344494F2042757300000000AE
:103F700055534220486F737420427573000000004F
:103F8000FF3A0008F73A0008B912000829120008A1
:103F9000F33A000835220008FB3A0008FC3C000810
:103FA00091250008023D0008853B00080A3D0008F5
:103FB000853B0008183D00083B260008243D00080A
:103FC0003B260008363D0008292600083F3D000832
:103FD000292600084E3D0008172600085B3D000812
:103FE000172600086E3D00084D260008793D0008A0
:103FF0004D2600088A3D000805260008963D000869
:1040000005260008A83D0008B1250008003E00086C
:10401000AD2700080B3E000833210008143E0008BD
:104020003D2100084440000800000020A4000000DA
:10403000801A0008E8400008A4000020240B0000BB
:10404000901A000800093D00000000000000000078
:104050000000000000000000000000000000000060
:104060000000000000000000000000000000000050
:104070002C0000202C00002078000000010000002F
:104080003C0000203C000020200000000400000054
:104090004C0000204C000020300000000800000010
:1040A0005C0000205C0000204000000009000000CF
:1040B0006C0000206C0000202C00000000000000BC
:1040C00000000000000000000000000000000000F0
:1040D00000000000000000000000000000000000E0
:0840E0000000000000000000D8
:040000050800019559
:00000001FF
