:020000040800F2
:1000000080040020A9010008B1010008B301000824
:10001000B5010008B7010008B901000800000000A0
:10002000000000000000000000000000BB0100080C
:10003000BD01000800000000BF010008ED1300082A
:10004000C3010008C3010008C3010008C301000880
:10005000C3010008C3010008C3010008C301000870
:10006000C3010008C3010008C3010008C301000860
:10007000C3010008C3010008C3010008C301000850
:10008000C3010008C3010008C3010008C301000840
:10009000C3010008C3010008C3010008C301000830
:1000A000C3010008C3010008C3010008C301000820
:1000B000C3010008C301000800000000C3010008DC
:1000C000C3010008C3010008C3010008C301000800
:1000D000C3010008C3010008C3010008C3010008F0
:1000E000C3010008C3010008000000000000000078
:1000F0000000000000000000000000000000000000
:1001000000000000C301000800000000C301000857
:10011000C301000800000000C30100080000000047
:10012000C3010008C3010008C3010008C30100089F
:10013000C3010008C3010008C3010008000000005B
:10014000C3010008C3010008C3010008C30100087F
:10015000C3010008C3010008C3010008C30100086F
:10016000C3010008C3010008C3010008000000002B
:1001700000000000C30100080000000000000000B3
:10018000C3010008C3010008C3010008C30100083F
:10019000C3010008DFF80CD000F06CF800480047FD
:1001A000E7180008800400200648804706480047FA
:1001B000FEE7FEE7FEE7FEE7FEE7FEE7FEE7FEE717
:1001C000FEE7FEE785140008950100082DE9F05FC1
:1001D0000546002092469B468846064681464024B6
:1001E0001BE0284641464746224600F032F8534677
:1001F0005A46C01A914110D311461846224600F0C3
:1002000019F82D1A67EB01084F46224601200021FC
:1002100000F010F817EB00094E41201EA4F1010474
:10022000DFDC484631462A46434600F000B830BC81
:10023000BDE8C09F202A04DB203A00FA02F100202A
:1002400070479140C2F1200320FA03F31943904014
:100250007047202A04DB203A21FA02F0002170477F
:1002600021FA02F3D040C2F120029140084319461E
:1002700070470000064C074D06E0E06840F00103BF
:1002800094E8070098471034AC42F6D3FFF786FF96
:10029000681900088819000870B5044600F0D6F8FF
:1002A0000546601C00D0641C00F0D0F8401BA04242
:1002B000FAD370BD2DE9F84FDFF864B100234FF099
:1002C000010C4FF0030A4FF00F090BF1040EA0E0F0
:1002D0000CFA03F6324072D04C68022C01D0122C7A
:1002E0000ED1DC0800EB8408D8F820405D07EF0E43
:1002F00009FA07F5AC430D69BD402543C8F8205005
:1003000007685D0091F804800AFA05F408F0030814
:10031000A74308FA05F848EA0708C0F800804F68C4
:10032000012F05D0022F03D0112F01D0122F11D190
:100330008768D1F80C80A74308FA05F848EA07084F
:10034000C0F808804768B7430E79C6F300169E4090
:100350003E434660C668A6438C68AC403443C460E4
:100360004C68E40054D52F4C256E45F001052566F8
:10037000246E23F0030504F0010400942A4C2E1986
:10038000B4689D072F0F09FA07F5AC43B0F1904F01
:1003900004D0264DA84203D1012512E0002510E02B
:1003A000234DA84201D102250BE0224DA84201D1E4
:1003B000032506E0204DA84202D1042501E027E0F4
:1003C0000725BD402543B560DBF800405D464E681B
:1003D0009443F60300D514432C60DEF800407546C4
:1003E0004E689443B60300D514432C600C4D083579
:1003F0002C684E689443F60200D514432C60084DD7
:100400000C352C684E689443B60200D514432C601A
:100410005B1C0A6832FA03F47FF45AAF00F00EB89E
:1004200000040140001002400000014000040048A8
:1004300000080048000C00480010004818BCBDE847
:10044000E08F0AB18161704781627047014800689E
:10045000704700000400002002480168491C016048
:100460007047000004000020074810B5016841F4FF
:1004700080710160032000F07DF8002000F006F894
:1004800000F018F8002010BD0020024010B504460E
:1004900007484FF47A710068B0FBF1F000F0EDFD11
:1004A00000222146501E00F045F8002010BD00003B
:1004B000000000201E4808B5016E41F001010166F0
:1004C000016E01F001010091816D41F08051816563
:1004D000806D00F080500090032000F04BF8002267
:1004E00011466FF00B0000F025F8002211466FF066
:1004F0000A0000F01FF8002211466FF0090000F01A
:1005000019F800221146501F00F014F8002211467D
:10051000101F00F00FF800221146901E00F00AF89C
:100520000022BDE808401146501E00F003B800004C
:1005300000100240F0B40E4B1B680C46C3F30223BC
:10054000C3F10705042D00D90425191D072901D27F
:10055000002300E0DB1E012606FA05F1491E2140BA
:1005600099409E40761E16403143F0BC00F05ABEC2
:100570000CED00E0064900F0070208684FF6FF03A3
:10058000184040EA0220034A104308607047000008
:100590000CED00E00000FA051549B0F5007F086891
:1005A000C0F3412009D0022805D0086820F4C060BB
:1005B00040F480600860002070470128FBD0086884
:1005C00020F4C06040F4007008600A480A4A0068DD
:1005D000B0FBF2F03222504300E0401E10B14A69F5
:1005E0005205FAD448694005E5D50320704700005C
:1005F000007000400000002040420F0002480068E8
:1006000000F4C06070470000007000402DE9F84F12
:10061000044600270088C04D3E46000515D5E06C15
:1006200060B1B0F5000F04D0B0F5400F2BD001271A
:100630000AE0E86840F48030E86024E00021201DF2
:1006400000F000FE07001ED03E46206880033AD529
:10065000A86D4FF00008C00009D4A86D40F080508C
:10066000A865A86D4FF0010800F080500090DFF8F9
:10067000ACA2DAF8001041F48071CAF80010FFF75C
:10068000E5FE814610E0D5F88800E16C20F44000DA
:100690000843C5F88800D8E7FFF7D8FEA0EB0900AB
:1006A000022801D9032705E0DAF80000C005F3D5D8
:1006B000002F7CD04FEA0706B8F1000F03D0A86DD9
:1006C00020F08050A8652078C00707D0D5F88800B2
:1006D000216A20F003000843C5F8880020788007CD
:1006E00007D5D5F88800616A20F00C000843C5F8EA
:1006F00088002078400707D5D5F88800A16A20F047
:1007000030000843C5F888002078000707D5D5F8E1
:100710008800E16A20F0C0000843C5F8880020780E
:10072000800607D5D5F88800216B20F44060084387
:10073000C5F888002088800507D5D5F88800616C49
:1007400020F440200843C5F888002088400507D5DC
:10075000D5F88800A16C20F440100843C5F8880043
:100760002078400607D5D5F88800616B20F440500A
:100770000843C5F888002078000607D5D5F888001A
:10078000A16B20F440400843C5F888002088C005CC
:1007900007D5D5F88800E16B20F440300843C5F850
:1007A00088002068C00209D5D5F89C0000E01CE054
:1007B000216C20F003000843C5F89C0020884FF00E
:1007C000006780044FF080684ED5D5F88800216D11
:1007D00020F040600843C5F88800206DB8423BD146
:1007E000E86840F48010E8603EE0D5F8900010F42E
:1007F000407014D0616E814211D0D5F89000D5F8C8
:10080000901020F4407041F48031C5F89010D5F874
:10081000901021F48031C5F89010C5F89000C00701
:1008200011D0FFF713FE074641F2883907E000BFF9
:10083000FFF70CFEC11B494501D903263CE7D5F85B
:1008400090008007F4D5D5F89000616E20F44070D8
:100850000843C5F890002FE7404505D10121201D30
:1008600000F0F0FC00B106462068000317D5D5F86B
:100870008800616D20F040600843C5F88800606D15
:10088000B84204D1E86840F48010E86007E04045D1
:1008900005D10121201D00F0D5FC00B106462068DD
:1008A000400317D5D5F88800A16D20F040600843BB
:1008B000C5F88800A06DB84204D1E86840F4801003
:1008C000E86007E0404505D10121201D00F0BAFC99
:1008D00000B106462088400411D5D5F88800E16DA6
:1008E00020F040500843C5F88800E06DB0F1805F0B
:1008F00005D10221201D00F0A5FC00B106462068AC
:10090000C00306D555F8880F216E20F0004008433B
:100910002860304600F004B800100240007000402B
:1009200018BCBDE8E08F00002DE9F047DFF86081DA
:1009300005460E46D8F8000000F00700B0420CD281
:10094000D8F8001021F007013143C8F80010D8F89A
:10095000000000F00700B04275D128784D4CC00768
:1009600057D06868032818D0022819D02168D0B160
:100970004905002967DAA16821F003010143A1605C
:10098000FFF764FD6968074641F28830032913D0F8
:1009900002291FD0814651B336E021688901E8E77A
:1009A00021688903E5E78907E3E700BFFFF74EFD0C
:1009B000C11B494501D924E08146A068C0F38100EC
:1009C0000328F3D125E000BFFFF740FDC11B4945D7
:1009D00001D916E08146A068C0F381000228F3D156
:1009E00017E000BFFFF732FDC11B494509D8A068D9
:1009F00010F00C0FF6D10CE0FFF728FDC11B4945A4
:100A000002D90320BDE8F087A068C0F38100012867
:100A1000F2D12878800705D5A068A96820F0F000F9
:100A20000843A060D8F80010404601F00701B14229
:100A30000BD9016821F0070131430160006800F023
:100A40000700B04201D00120DCE72878400705D537
:100A5000A068E96820F4E0600843A06028780007F7
:100A600006D5A068296920F4605040EAC100A06062
:100A700000F03CF8A168084AC1F30311515CC8407A
:100A8000064908600020FFF701FD0020BAE70000DA
:100A90000020024000100240201900080000002041
:100AA0000148006870470000000000200448054924
:100AB00000688968044AC1F30221515CC84070474C
:100AC0000000002000100240601900080448054999
:100AD00000688968044AC1F3C221515CC84070476C
:100AE00000000020001002406019000830B52D49B8
:100AF000002318468A682C4C12F00C0F4FEA64054C
:100B000014D08A68C2F38102032A04D1CA6802F0B1
:100B10000302012A0AD08A68C2F38102012A19D08D
:100B20008A68C2F38102022A16D016E00A68120708
:100B300004D4D1F89420C2F3032202E00A68C2F37D
:100B400003121A4B53F822308A6812F00C0F04D1AA
:100B5000184602E0204600E028468A68C2F3810277
:100B6000032A1DD1C868CA6800F00300C2F302124C
:100B7000521C022804D0032805D0B3FBF2F004E095
:100B8000B4FBF2F001E0B5FBF2F0CA68C968C2F349
:100B900006225043C1F34161491C4900B0FBF1F00A
:100BA00030BD0000001002400024F400301900089D
:100BB0002DE9F84304460078FD4DC0065DD5A868D0
:100BC00010F00C0F0AD0A0690028286871D040F0FE
:100BD00001002860FFF73AFC064654E028688007C9
:100BE00002D5A06900287DD0216A2868000703D5B6
:100BF000286800F0F00004E0D5F89400F02202EA42
:100C00001010814216D9084600F0B2FB002869D1C5
:100C1000286840F0080028602868216A20F0F00069
:100C2000084328606868E16920F47F4040EA0120B9
:100C3000686015E0286840F0080028602868216A8C
:100C400020F0F000084328606868E16920F47F40E4
:100C500040EA01206860206A00F08AFB0028D6D1B3
:100C6000FFF744FFA968D34AC1F30311515CC840A0
:100C7000D14908600020FFF709FC29E0FFF7E6FBF7
:100C8000801B02287ED828688007F7D5286840F0A6
:100C9000080028602868216A20F0F00008432860D6
:100CA0006868E16920F47F4040EA012068600FE055
:100CB000FFE720F001002860FFF7C8FB064604E0CC
:100CC000FFF7C4FB801B0228DCD828688007F7D414
:100CD0002078C0074AD0A868C0F3810002281FD03E
:100CE000A86800E098E0C0F38100032803D1E86819
:100CF000C043800714D06068B0F5803F17D0B0F5CE
:100D0000A02F286817D020F480302860286820F4AD
:100D1000802028606068E0B1FFF798FB064614E089
:100D20002868800322D56068002875D01EE02868F6
:100D300040F48030EDE740F480202860F7E700BF02
:100D4000FFF784FB801B64289CD828688003F7D5B4
:100D50000CE0FFF77BFB064605E000BFFFF776FBE4
:100D6000801B64288ED828688003F7D420788007F9
:100D700042D5A868C0F38100012816D0A868C0F346
:100D8000810000E0CEE0032804D1E86800F0030011
:100D900002280AD0E068002828681DD040F480703E
:100DA0002860FFF753FB06460BE0286840050BD58B
:100DB000E0680028B9D007E0FFF748FB801B022855
:100DC000C2D828684005F7D56868217C20F0FE402D
:100DD00040EA016068600FE020F480702860FFF74F
:100DE00035FB064605E000BFFFF730FB801B0228FD
:100DF000AAD828684005F7D42078000729D560696B
:100E00000028D5F8940013D040F00100C5F89400F4
:100E1000FFF71CFB064606E01DE100BFFFF716FBCF
:100E2000801B02287ED8D5F894008007F6D510E004
:100E300020F00100C5F89400FFF708FB064604E027
:100E4000FFF704FB801B02286CD8D5F894008007BC
:100E5000F6D42078400761D5A86D0026C00008D4DC
:100E6000A86D40F08050A865A86D012600F0805064
:100E7000009052480168C90511D40168804641F4C8
:100E800080710160FFF7E2FA074604E0FFF7DEFA3F
:100E9000C01B022846D8D8F80000C005F6D5A068C7
:100EA000012815D00528D5F8900016D020F00100B3
:100EB000C5F89000D5F8900020F00400C5F8900027
:100EC000A06841F28838B8B1FFF7C0FA07460EE0D3
:100ED000D5F8900040F00100F0E740F00400C5F8BC
:100EE0009000F5E7FFF7B2FAC11B41451AD8D5F8D3
:100EF00090008007F6D50CE0FFF7A8FA074604E05B
:100F0000FFF7A4FAC11B41450CD8D5F89000800723
:100F1000F6D41EB1A86D20F08050A8652078800618
:100F200029D500E089E0606A0028D5F8980011D042
:100F300040F00100C5F89800FFF788FA064604E083
:100F4000FFF784FA801B02287DD8D5F89800800727
:100F5000F6D510E020F00100C5F89800FFF776FA0A
:100F6000064604E0FFF772FA801B02286BD8D5F81A
:100F700098008007F6D4A06AC8B1A968C1F38101BE
:100F8000032968D00228286820F08070286019D0D2
:100F90002868000103D4E86820F00300E860E868EE
:100FA00007490840E860FFF751FA04464EE050E078
:100FB00000100240201900080000002000700040CE
:100FC000FFFFEEFEFFF742FA064604E0FFF73EFAA7
:100FD000801B022837D828688001F7D4206B54F88A
:100FE0002C1F000110380843218A1C4A490802EBD3
:100FF0004151A26841EA02210843217D4FF07E421F
:10100000490802EB41610843217B40EAC160E86086
:10101000286840F080702860E86840F08070E860E0
:10102000FFF714FA044604E0FFF710FA001B022849
:1010300009D828688001F7D50BE004E0FFF706FA2D
:10104000001B022802D90320BDE8F883286880012C
:10105000F4D40020F8E70120F6E700000000E0FFEC
:101060004FF0E0210428086903D020F00400086153
:10107000704740F00400FAE7704710B5401EB0F129
:10108000807F01D3012010BD4FF0E02460610F216B
:10109000601700F0C7F80020A06107202061002041
:1010A00010BD10B5FFF7E8FF10BD10B5040003D068
:1010B00094F8710010B107E0012010BD002084F801
:1010C0007000204600F026F8242084F87100206883
:1010D000016821F001010160204600F087FA012833
:1010E000EBD0606A10B1204600F0EEF9206841684C
:1010F00021F4904141602068816821F02A018160DB
:101100002068016841F0010101602046BDE81040FF
:1011100000F03EBA00B500680E4987B0884217D18A
:101120000D48816D41F400318165806D694600F4A0
:10113000003005900C2000900220019000200290C9
:1011400003200390072004904FF09040FFF7B2F87F
:1011500007B000BD004400400010024030B52048F8
:1011600087B0C16C41F00401C164C16C01F004019D
:101170000591C16C41F08001C164C16C01F0800136
:101180000591C16C41F00101C164C16C01F0010124
:101190000591C16C41F00201C164C06C4FF09045F3
:1011A00000F002000590002220212846FFF749F9AF
:1011B0004FF4005000900B480024CDE9010469462B
:1011C0000948FFF777F8202000900120CDE90104BD
:1011D000694628460394FFF76DF807B030BD00005C
:1011E0000010024000002110000800480C4810B513
:1011F0000A4901604FF4E1314160C9048160002176
:101200000C22C160C0E904128161C16101624162C6
:10121000FFF74BFF002800D0FEE710BD0044004060
:10122000080000200907090E002806DA00F00F0068
:1012300000F1E02080F8141D704700F1E02080F8F4
:10124000001470472DE9F041444C05468846E0689B
:101250000026810728680DD0E16801F00301814272
:1012600016D1A8B1E0686968C0F30210401C88423A
:101270000ED120E0012804D0022805D0032807D190
:1012800008E02168890701E021684905002907DB9A
:1012900001265FE02168890302D421684903F5E74C
:1012A000E1686A686FF00F0321F0730103EB02122B
:1012B00011430143E160206820F080602060FFF767
:1012C000C5F8074605E000BFFFF7C0F8C01B0228BD
:1012D00037D820680001F7D4B8F1000F18D0B8F162
:1012E000010F1DD0287D4FF07E41400801EB40608A
:1012F000A96840EA01202169194A11400843206188
:10130000206840F080602060FFF7A0F807461AE0F0
:10131000A868297B000240EAC1602169114AECE714
:10132000288A1149400801EB4050A96840EA012091
:1013300021690E4AE1E700BFFFF788F8C01B0228C9
:1013400001D9032606E020680001F5D52069A969C6
:10135000084320613046BDE8F081000000100240E3
:10136000FF80FFF9FF80FF070000E0FFFF809FFF85
:10137000F8B51C4D06460024A86DC00002D5FFF745
:101380003DF90DE0A86D40F08050A865A86D00F013
:1013900080500090FFF732F9A96D21F08051A965C6
:1013A000B0F5007F04D0802E07D94FF003040AE087
:1013B000802E08D9A02E01D804E001D1022402E039
:1013C000702E00D101240848016821F00701214353
:1013D0000160006800F00700A04201D00120F8BDC4
:1013E0000020F8BD001002400020024010B5FFF7B9
:1013F00033F8BDE81040FFF754BE30B5B1B0022459
:10140000E00103901020009404900A940120CDE99B
:101410000B400A200D900720CDE90E046846109479
:10142000FFF7C6FB00B1FEE70F2000252B9003203D
:10143000CDE92C052E9504212BA82F95FFF774FAE2
:1014400000B1FEE711A81A951194FFF7DFF800B17B
:10145000FEE74FF40070FFF79FF800B1FEE7FFF7DB
:101460001FFB4FF47A71B0FBF1F0FFF706FE04208A
:10147000FFF7F6FD00221146501EFFF75BF831B072
:1014800030BD00000D48016841F4700101600C4856
:10149000016841F001010160002181600268094B8F
:1014A0001A4002608214C260026822F48022026044
:1014B00081610249C00380390860704788ED00E00F
:1014C00000100240FFFFF6EA90F82410C90706D08A
:1014D00001684A68836A22F400321A434A6090F82D
:1014E0002410890706D501684A68C36A22F480324D
:1014F0001A434A6090F82410490706D501684A68E3
:10150000036B22F480221A434A6090F824100907E2
:1015100006D501684A68436B22F400421A434A60C8
:1015200090F82410C90606D501688A68836B22F4F6
:1015300080521A438A6090F82410890606D5016803
:101540008A68C36B22F400521A438A6090F8241010
:10155000490611D501684A68036C22F480121A43C7
:101560004A60016CB1F5801F06D101684A68436C7E
:1015700022F4C0021A434A6090F82410090606D5E6
:1015800001684A68806C22F4002202434A60704776
:10159000F8B5002604464667FEF758FF0546206862
:1015A00000686FF07E47000708D52B4600224FF4F5
:1015B00000112046009700F055F960B920680068D6
:1015C00040070AD52B4600224FF4800120460097A1
:1015D00000F048F908B10320F8BD202084F871001C
:1015E00084F8720084F870600020F8BD2DE9F041A5
:1015F0000446016880682369E66918436369102519
:101600000027334318438C4A0B688C4E3340034306
:101610000B6020684168E36821F440511943416040
:101620002168A069914201D0236A18438B6823F492
:10163000306303438B60824B2168824899420DD10D
:10164000D0F8880010F0030006D0012848D0022806
:1016500044D0032847D145E0012544E07A4B994224
:101660000BD1D0F8880010F00C0035D0042837D00A
:10167000082833D00C2836D134E0744B99420BD172
:10168000D0F8880010F0300026D0102828D020286C
:1016900024D0302827D125E06D4B99420BD1D0F8CA
:1016A000880010F0C00017D0402819D0802815D02D
:1016B000C02818D116E0914215D1D0F8880010F456
:1016C000406009D0B0F5806F0AD0B0F5006F05D04A
:1016D000B0F5406F07D105E0002504E0022502E0E7
:1016E000042500E008255B4B00264FF400409142A2
:1016F0003DD135B1022D07D0042D07D0082D10D1D2
:1017000007E0FFF7D3F903E0184602E0FFF7EEF930
:10171000A8B3626802EB4201814202D8B0EB023FFB
:1017200001D9012775E0DFF830815DB1022D0CD0C1
:10173000042D13D0082DF4D150082905401846F186
:10174000000105E0FFF7B2F90AE050084349F5E768
:101750000023FEF73BFDA0F5407156E0FFF7C6F908
:101760006268010E0302500818187141F0E7E16940
:101770004FF6EF7881422FD1092DD2D200E048E018
:10178000DFE805F006092005230505052600C8E762
:10179000FFF78CF901E0FFF799F94100D4F8040054
:1017A00001EB5001B1FBF0F080B2A0F11001414516
:1017B000B7D84FF6F0710140C0F3420001432068F2
:1017C000C16026E026496068EAE7FFF78FF9E4E7A1
:1017D0004FF480316068E3E7092DA2D2DFE805F01D
:1017E00006091E052205050525009AE7FFF75EF9A3
:1017F00001E0FFF76BF90146606801EB500100BFA3
:10180000B1FBF0F080B2A0F11001414589D8216808
:10181000C860266638466666BDE8F081606803EBFE
:101820005001EDE7FFF762F9E5E7616800EB510071
:10183000B0FBF1F0E6E7000000800040F369FFEF45
:1018400000380140001002400044004000480040C1
:10185000004C00400024F400FFFC0F00000024F4C2
:101860000048E8012DE9F041984617460E46044627
:10187000069D1DE0681C1BD02DB1FEF7E7FDA0EB17
:101880000800A84214D92068016821F4D0710160D1
:101890002068816821F001018160202084F87100B6
:1018A00084F87200002084F870000320BDE8F08105
:1018B0002068C06936EA000004D00020B842D9D0C0
:1018C0000020F3E70120F9E702E008C8121F08C171
:1018D000002AFAD170477047002001E001C1121FB1
:1018E000002AFBD17047FEF7BFFDFFF786FDFFF72B
:1018F00035FCFFF77BFC4FF090454FF4FA74002263
:1019000020212846FEF79DFD2046FEF7C5FC01225A
:1019100020212846FEF795FD2046FEF7BDFCEEE7A8
:10192000000000000000000001020304060708098F
:10193000A0860100400D0300801A060000350C004F
:1019400040420F0080841E0000093D0000127A0012
:101950000024F40000366E010048E801006CDC024F
:1019600000000000010203048819000800000020A4
:1019700008000000C818000890190008080000209E
:1019800078040000D818000800093D00000000009D
:040000050800019559
:00000001FF
